{
  "contractName": "SupplyChain",
  "abi": [
    {
      "constant": true,
      "inputs": [
        {
          "name": "",
          "type": "uint256"
        }
      ],
      "name": "DIS",
      "outputs": [
        {
          "name": "addr",
          "type": "address"
        },
        {
          "name": "id_no",
          "type": "uint256"
        },
        {
          "name": "name",
          "type": "string"
        },
        {
          "name": "place",
          "type": "string"
        }
      ],
      "payable": false,
      "stateMutability": "view",
      "type": "function"
    },
    {
      "constant": true,
      "inputs": [],
      "name": "disCtr",
      "outputs": [
        {
          "name": "",
          "type": "uint256"
        }
      ],
      "payable": false,
      "stateMutability": "view",
      "type": "function"
    },
    {
      "constant": true,
      "inputs": [],
      "name": "manCtr",
      "outputs": [
        {
          "name": "",
          "type": "uint256"
        }
      ],
      "payable": false,
      "stateMutability": "view",
      "type": "function"
    },
    {
      "constant": true,
      "inputs": [
        {
          "name": "",
          "type": "uint256"
        }
      ],
      "name": "RET",
      "outputs": [
        {
          "name": "addr",
          "type": "address"
        },
        {
          "name": "id_no",
          "type": "uint256"
        },
        {
          "name": "name",
          "type": "string"
        },
        {
          "name": "place",
          "type": "string"
        }
      ],
      "payable": false,
      "stateMutability": "view",
      "type": "function"
    },
    {
      "constant": true,
      "inputs": [],
      "name": "retCtr",
      "outputs": [
        {
          "name": "",
          "type": "uint256"
        }
      ],
      "payable": false,
      "stateMutability": "view",
      "type": "function"
    },
    {
      "constant": true,
      "inputs": [],
      "name": "medicineCtr",
      "outputs": [
        {
          "name": "",
          "type": "uint256"
        }
      ],
      "payable": false,
      "stateMutability": "view",
      "type": "function"
    },
    {
      "constant": true,
      "inputs": [],
      "name": "Owner",
      "outputs": [
        {
          "name": "",
          "type": "address"
        }
      ],
      "payable": false,
      "stateMutability": "view",
      "type": "function"
    },
    {
      "constant": true,
      "inputs": [
        {
          "name": "",
          "type": "uint256"
        }
      ],
      "name": "MAN",
      "outputs": [
        {
          "name": "addr",
          "type": "address"
        },
        {
          "name": "id_no",
          "type": "uint256"
        },
        {
          "name": "name",
          "type": "string"
        },
        {
          "name": "place",
          "type": "string"
        }
      ],
      "payable": false,
      "stateMutability": "view",
      "type": "function"
    },
    {
      "constant": true,
      "inputs": [],
      "name": "rmsCtr",
      "outputs": [
        {
          "name": "",
          "type": "uint256"
        }
      ],
      "payable": false,
      "stateMutability": "view",
      "type": "function"
    },
    {
      "constant": true,
      "inputs": [
        {
          "name": "",
          "type": "uint256"
        }
      ],
      "name": "MedicineStock",
      "outputs": [
        {
          "name": "id",
          "type": "uint256"
        },
        {
          "name": "name",
          "type": "string"
        },
        {
          "name": "description",
          "type": "string"
        },
        {
          "name": "RMSid",
          "type": "uint256"
        },
        {
          "name": "MANid",
          "type": "uint256"
        },
        {
          "name": "DISid",
          "type": "uint256"
        },
        {
          "name": "RETid",
          "type": "uint256"
        },
        {
          "name": "stage",
          "type": "uint8"
        }
      ],
      "payable": false,
      "stateMutability": "view",
      "type": "function"
    },
    {
      "constant": true,
      "inputs": [
        {
          "name": "",
          "type": "uint256"
        }
      ],
      "name": "RMS",
      "outputs": [
        {
          "name": "addr",
          "type": "address"
        },
        {
          "name": "id_no",
          "type": "uint256"
        },
        {
          "name": "name",
          "type": "string"
        },
        {
          "name": "place",
          "type": "string"
        }
      ],
      "payable": false,
      "stateMutability": "view",
      "type": "function"
    },
    {
      "inputs": [],
      "payable": false,
      "stateMutability": "nonpayable",
      "type": "constructor"
    },
    {
      "anonymous": false,
      "inputs": [
        {
          "indexed": false,
          "name": "_medId",
          "type": "uint256"
        },
        {
          "indexed": false,
          "name": "name",
          "type": "string"
        },
        {
          "indexed": false,
          "name": "description",
          "type": "string"
        }
      ],
      "name": "medReg",
      "type": "event"
    },
    {
      "constant": true,
      "inputs": [
        {
          "name": "_medicineID",
          "type": "uint256"
        }
      ],
      "name": "showStage",
      "outputs": [
        {
          "name": "_stage",
          "type": "string"
        }
      ],
      "payable": false,
      "stateMutability": "view",
      "type": "function"
    },
    {
      "constant": false,
      "inputs": [
        {
          "name": "_address",
          "type": "address"
        },
        {
          "name": "_name",
          "type": "string"
        },
        {
          "name": "_place",
          "type": "string"
        }
      ],
      "name": "addRMS",
      "outputs": [],
      "payable": false,
      "stateMutability": "nonpayable",
      "type": "function"
    },
    {
      "constant": false,
      "inputs": [
        {
          "name": "_address",
          "type": "address"
        },
        {
          "name": "_name",
          "type": "string"
        },
        {
          "name": "_place",
          "type": "string"
        }
      ],
      "name": "addManufacturer",
      "outputs": [],
      "payable": false,
      "stateMutability": "nonpayable",
      "type": "function"
    },
    {
      "constant": false,
      "inputs": [
        {
          "name": "_address",
          "type": "address"
        },
        {
          "name": "_name",
          "type": "string"
        },
        {
          "name": "_place",
          "type": "string"
        }
      ],
      "name": "addDistributor",
      "outputs": [],
      "payable": false,
      "stateMutability": "nonpayable",
      "type": "function"
    },
    {
      "constant": false,
      "inputs": [
        {
          "name": "_address",
          "type": "address"
        },
        {
          "name": "_name",
          "type": "string"
        },
        {
          "name": "_place",
          "type": "string"
        }
      ],
      "name": "addRetailer",
      "outputs": [],
      "payable": false,
      "stateMutability": "nonpayable",
      "type": "function"
    },
    {
      "constant": false,
      "inputs": [
        {
          "name": "_medicineID",
          "type": "uint256"
        }
      ],
      "name": "RMSsupply",
      "outputs": [],
      "payable": false,
      "stateMutability": "nonpayable",
      "type": "function"
    },
    {
      "constant": false,
      "inputs": [
        {
          "name": "_medicineID",
          "type": "uint256"
        }
      ],
      "name": "Distribute",
      "outputs": [],
      "payable": false,
      "stateMutability": "nonpayable",
      "type": "function"
    },
    {
      "constant": false,
      "inputs": [
        {
          "name": "_medicineID",
          "type": "uint256"
        }
      ],
      "name": "Retail",
      "outputs": [],
      "payable": false,
      "stateMutability": "nonpayable",
      "type": "function"
    },
    {
      "constant": false,
      "inputs": [
        {
          "name": "_medicineID",
          "type": "uint256"
        }
      ],
      "name": "sold",
      "outputs": [],
      "payable": false,
      "stateMutability": "nonpayable",
      "type": "function"
    },
    {
      "constant": false,
      "inputs": [
        {
          "name": "_medId",
          "type": "uint256"
        },
        {
          "name": "_name",
          "type": "string"
        },
        {
          "name": "_description",
          "type": "string"
        }
      ],
      "name": "addMedicine",
      "outputs": [],
      "payable": false,
      "stateMutability": "nonpayable",
      "type": "function"
    },
    {
      "constant": false,
      "inputs": [],
      "name": "placeOrder",
      "outputs": [],
      "payable": false,
      "stateMutability": "nonpayable",
      "type": "function"
    }
  ],
  "bytecode": "0x60806040526000600155600060025560006003556000600455600060055534801561002957600080fd5b50336000806101000a81548173ffffffffffffffffffffffffffffffffffffffff021916908373ffffffffffffffffffffffffffffffffffffffff160217905550613853806100796000396000f3fe608060405260043610610122576000357c0100000000000000000000000000000000000000000000000000000000900480632a4af440146101275780632b0187ac146102a65780632b70b08d146104005780632bdb2e6b1461057f5780633d753a1c146105aa578063438e9c4d146105e55780634def474a1461061057806359bf286f1461064b5780636a992c9f146107a55780637e43d94d14610924578063857ddb041461094f57806386c1827514610ace57806397dd7bbf14610b095780639c03facb14610c72578063a95f29d914610cad578063b4a99a4e14610cd8578063cc40306914610d2f578063dd28639814610e89578063e101a2e014610eb4578063eb1a06b514610f68578063eef5cb40146110c0578063f5c609e01461121a575b600080fd5b34801561013357600080fd5b506102a46004803603606081101561014a57600080fd5b81019080803573ffffffffffffffffffffffffffffffffffffffff1690602001909291908035906020019064010000000081111561018757600080fd5b82018360208201111561019957600080fd5b803590602001918460018302840111640100000000831117156101bb57600080fd5b91908080601f016020809104026020016040519081016040528093929190818152602001838380828437600081840152601f19601f8201169050808301925050505050505091929192908035906020019064010000000081111561021e57600080fd5b82018360208201111561023057600080fd5b8035906020019184600183028401116401000000008311171561025257600080fd5b91908080601f016020809104026020016040519081016040528093929190818152602001838380828437600081840152601f19601f820116905080830192505050505050509192919290505050611231565b005b3480156102b257600080fd5b506102df600480360360208110156102c957600080fd5b810190808035906020019092919050505061140f565b604051808573ffffffffffffffffffffffffffffffffffffffff1673ffffffffffffffffffffffffffffffffffffffff1681526020018481526020018060200180602001838103835285818151815260200191508051906020019080838360005b8381101561035b578082015181840152602081019050610340565b50505050905090810190601f1680156103885780820380516001836020036101000a031916815260200191505b50838103825284818151815260200191508051906020019080838360005b838110156103c15780820151818401526020810190506103a6565b50505050905090810190601f1680156103ee5780820380516001836020036101000a031916815260200191505b50965050505050505060405180910390f35b34801561040c57600080fd5b5061057d6004803603606081101561042357600080fd5b81019080803573ffffffffffffffffffffffffffffffffffffffff1690602001909291908035906020019064010000000081111561046057600080fd5b82018360208201111561047257600080fd5b8035906020019184600183028401116401000000008311171561049457600080fd5b91908080601f016020809104026020016040519081016040528093929190818152602001838380828437600081840152601f19601f820116905080830192505050505050509192919290803590602001906401000000008111156104f757600080fd5b82018360208201111561050957600080fd5b8035906020019184600183028401116401000000008311171561052b57600080fd5b91908080601f016020809104026020016040519081016040528093929190818152602001838380828437600081840152601f19601f82011690508083019250505050505050919291929050505061158f565b005b34801561058b57600080fd5b5061059461176d565b6040518082815260200191505060405180910390f35b3480156105b657600080fd5b506105e3600480360360208110156105cd57600080fd5b8101908080359060200190929190505050611773565b005b3480156105f157600080fd5b506105fa6119ac565b6040518082815260200191505060405180910390f35b34801561061c57600080fd5b506106496004803603602081101561063357600080fd5b81019080803590602001909291905050506119b2565b005b34801561065757600080fd5b506106846004803603602081101561066e57600080fd5b8101908080359060200190929190505050611c11565b604051808573ffffffffffffffffffffffffffffffffffffffff1673ffffffffffffffffffffffffffffffffffffffff1681526020018481526020018060200180602001838103835285818151815260200191508051906020019080838360005b838110156107005780820151818401526020810190506106e5565b50505050905090810190601f16801561072d5780820380516001836020036101000a031916815260200191505b50838103825284818151815260200191508051906020019080838360005b8381101561076657808201518184015260208101905061074b565b50505050905090810190601f1680156107935780820380516001836020036101000a031916815260200191505b50965050505050505060405180910390f35b3480156107b157600080fd5b50610922600480360360608110156107c857600080fd5b81019080803573ffffffffffffffffffffffffffffffffffffffff1690602001909291908035906020019064010000000081111561080557600080fd5b82018360208201111561081757600080fd5b8035906020019184600183028401116401000000008311171561083957600080fd5b91908080601f016020809104026020016040519081016040528093929190818152602001838380828437600081840152601f19601f8201169050808301925050505050505091929192908035906020019064010000000081111561089c57600080fd5b8201836020820111156108ae57600080fd5b803590602001918460018302840111640100000000831117156108d057600080fd5b91908080601f016020809104026020016040519081016040528093929190818152602001838380828437600081840152601f19601f820116905080830192505050505050509192919290505050611d91565b005b34801561093057600080fd5b50610939611f6f565b6040518082815260200191505060405180910390f35b34801561095b57600080fd5b50610acc6004803603606081101561097257600080fd5b81019080803573ffffffffffffffffffffffffffffffffffffffff169060200190929190803590602001906401000000008111156109af57600080fd5b8201836020820111156109c157600080fd5b803590602001918460018302840111640100000000831117156109e357600080fd5b91908080601f016020809104026020016040519081016040528093929190818152602001838380828437600081840152601f19601f82011690508083019250505050505050919291929080359060200190640100000000811115610a4657600080fd5b820183602082011115610a5857600080fd5b80359060200191846001830284011164010000000083111715610a7a57600080fd5b91908080601f016020809104026020016040519081016040528093929190818152602001838380828437600081840152601f19601f820116905080830192505050505050509192919290505050611f75565b005b348015610ada57600080fd5b50610b0760048036036020811015610af157600080fd5b8101908080359060200190929190505050612153565b005b348015610b1557600080fd5b50610c7060048036036060811015610b2c57600080fd5b810190808035906020019092919080359060200190640100000000811115610b5357600080fd5b820183602082011115610b6557600080fd5b80359060200191846001830284011164010000000083111715610b8757600080fd5b91908080601f016020809104026020016040519081016040528093929190818152602001838380828437600081840152601f19601f82011690508083019250505050505050919291929080359060200190640100000000811115610bea57600080fd5b820183602082011115610bfc57600080fd5b80359060200191846001830284011164010000000083111715610c1e57600080fd5b91908080601f016020809104026020016040519081016040528093929190818152602001838380828437600081840152601f19601f8201169050808301925050505050505091929192905050506123b2565b005b348015610c7e57600080fd5b50610cab60048036036020811015610c9557600080fd5b8101908080359060200190929190505050612782565b005b348015610cb957600080fd5b50610cc26129c4565b6040518082815260200191505060405180910390f35b348015610ce457600080fd5b50610ced6129ca565b604051808273ffffffffffffffffffffffffffffffffffffffff1673ffffffffffffffffffffffffffffffffffffffff16815260200191505060405180910390f35b348015610d3b57600080fd5b50610d6860048036036020811015610d5257600080fd5b81019080803590602001909291905050506129ef565b604051808573ffffffffffffffffffffffffffffffffffffffff1673ffffffffffffffffffffffffffffffffffffffff1681526020018481526020018060200180602001838103835285818151815260200191508051906020019080838360005b83811015610de4578082015181840152602081019050610dc9565b50505050905090810190601f168015610e115780820380516001836020036101000a031916815260200191505b50838103825284818151815260200191508051906020019080838360005b83811015610e4a578082015181840152602081019050610e2f565b50505050905090810190601f168015610e775780820380516001836020036101000a031916815260200191505b50965050505050505060405180910390f35b348015610e9557600080fd5b50610e9e612b6f565b6040518082815260200191505060405180910390f35b348015610ec057600080fd5b50610eed60048036036020811015610ed757600080fd5b8101908080359060200190929190505050612b75565b6040518080602001828103825283818151815260200191508051906020019080838360005b83811015610f2d578082015181840152602081019050610f12565b50505050905090810190601f168015610f5a5780820380516001836020036101000a031916815260200191505b509250505060405180910390f35b348015610f7457600080fd5b50610fa160048036036020811015610f8b57600080fd5b8101908080359060200190929190505050612e87565b604051808981526020018060200180602001888152602001878152602001868152602001858152602001846005811115610fd757fe5b60ff16815260200183810383528a818151815260200191508051906020019080838360005b83811015611017578082015181840152602081019050610ffc565b50505050905090810190601f1680156110445780820380516001836020036101000a031916815260200191505b50838103825289818151815260200191508051906020019080838360005b8381101561107d578082015181840152602081019050611062565b50505050905090810190601f1680156110aa5780820380516001836020036101000a031916815260200191505b509a505050505050505050505060405180910390f35b3480156110cc57600080fd5b506110f9600480360360208110156110e357600080fd5b810190808035906020019092919050505061300c565b604051808573ffffffffffffffffffffffffffffffffffffffff1673ffffffffffffffffffffffffffffffffffffffff1681526020018481526020018060200180602001838103835285818151815260200191508051906020019080838360005b8381101561117557808201518184015260208101905061115a565b50505050905090810190601f1680156111a25780820380516001836020036101000a031916815260200191505b50838103825284818151815260200191508051906020019080838360005b838110156111db5780820151818401526020810190506111c0565b50505050905090810190601f1680156112085780820380516001836020036101000a031916815260200191505b50965050505050505060405180910390f35b34801561122657600080fd5b5061122f61318c565b005b6000809054906101000a900473ffffffffffffffffffffffffffffffffffffffff1673ffffffffffffffffffffffffffffffffffffffff163373ffffffffffffffffffffffffffffffffffffffff1614151561131b576040517f08c379a000000000000000000000000000000000000000000000000000000000815260040180806020018281038252602b8152602001807f4f6e6c7920436f6e7472616374204f776e657220616b612041646d696e20636181526020017f6e2063616c6c207468697300000000000000000000000000000000000000000081525060400191505060405180910390fd5b6004600081548092919060010191905055506080604051908101604052808473ffffffffffffffffffffffffffffffffffffffff16815260200160045481526020018381526020018281525060096000600454815260200190815260200160002060008201518160000160006101000a81548173ffffffffffffffffffffffffffffffffffffffff021916908373ffffffffffffffffffffffffffffffffffffffff1602179055506020820151816001015560408201518160020190805190602001906113e9929190613782565b506060820151816003019080519060200190611406929190613782565b50905050505050565b60096020528060005260406000206000915090508060000160009054906101000a900473ffffffffffffffffffffffffffffffffffffffff1690806001015490806002018054600181600116156101000203166002900480601f0160208091040260200160405190810160405280929190818152602001828054600181600116156101000203166002900480156114e75780601f106114bc576101008083540402835291602001916114e7565b820191906000526020600020905b8154815290600101906020018083116114ca57829003601f168201915b505050505090806003018054600181600116156101000203166002900480601f0160208091040260200160405190810160405280929190818152602001828054600181600116156101000203166002900480156115855780601f1061155a57610100808354040283529160200191611585565b820191906000526020600020905b81548152906001019060200180831161156857829003601f168201915b5050505050905084565b6000809054906101000a900473ffffffffffffffffffffffffffffffffffffffff1673ffffffffffffffffffffffffffffffffffffffff163373ffffffffffffffffffffffffffffffffffffffff16141515611679576040517f08c379a000000000000000000000000000000000000000000000000000000000815260040180806020018281038252602b8152602001807f4f6e6c7920436f6e7472616374204f776e657220616b612041646d696e20636181526020017f6e2063616c6c207468697300000000000000000000000000000000000000000081525060400191505060405180910390fd5b6002600081548092919060010191905055506080604051908101604052808473ffffffffffffffffffffffffffffffffffffffff16815260200160025481526020018381526020018281525060076000600254815260200190815260200160002060008201518160000160006101000a81548173ffffffffffffffffffffffffffffffffffffffff021916908373ffffffffffffffffffffffffffffffffffffffff160217905550602082015181600101556040820151816002019080519060200190611747929190613782565b506060820151816003019080519060200190611764929190613782565b50905050505050565b60045481565b60008111801561178557506001548111155b15156117f9576040517f08c379a00000000000000000000000000000000000000000000000000000000081526004018080602001828103825260128152602001807f4e6f206d65646963696e657320666f756e64000000000000000000000000000081525060200191505060405180910390fd5b60006118043361346e565b905060008111151561187e576040517f08c379a00000000000000000000000000000000000000000000000000000000081526004018080602001828103825260208152602001807f4f6e6c792052657461696c6572206163636f756e742063616e2072657461696c81525060200191505060405180910390fd5b6003600581111561188b57fe5b6006600084815260200190815260200160002060070160009054906101000a900460ff1660058111156118ba57fe5b141515611955576040517f08c379a000000000000000000000000000000000000000000000000000000000815260040180806020018281038252603d8152602001807f4d65646963696e652073686f756c64206265206174207468652064697374726981526020017f62697574696f6e20737461676520746f206765742072657461696c656400000081525060400191505060405180910390fd5b80600660008481526020019081526020016000206006018190555060046006600084815260200190815260200160002060070160006101000a81548160ff021916908360058111156119a357fe5b02179055505050565b60035481565b6000811180156119c457506001548111155b1515611a38576040517f08c379a00000000000000000000000000000000000000000000000000000000081526004018080602001828103825260128152602001807f4e6f206d65646963696e657320666f756e64000000000000000000000000000081525060200191505060405180910390fd5b6000611a4333613533565b9050600081111515611ae3576040517f08c379a00000000000000000000000000000000000000000000000000000000081526004018080602001828103825260278152602001807f4f6e6c79206469737472696275746f72206163636f756e742063616e2064697381526020017f747269627574650000000000000000000000000000000000000000000000000081525060400191505060405180910390fd5b60026005811115611af057fe5b6006600084815260200190815260200160002060070160009054906101000a900460ff166005811115611b1f57fe5b141515611bba576040517f08c379a000000000000000000000000000000000000000000000000000000000815260040180806020018281038252603e8152602001807f4d65646963696e652073686f756c6420626520617420746865204d616e75666181526020017f637475726520737461676520746f20676574206469737472696275746564000081525060400191505060405180910390fd5b80600660008481526020019081526020016000206005018190555060036006600084815260200190815260200160002060070160006101000a81548160ff02191690836005811115611c0857fe5b02179055505050565b600a6020528060005260406000206000915090508060000160009054906101000a900473ffffffffffffffffffffffffffffffffffffffff1690806001015490806002018054600181600116156101000203166002900480601f016020809104026020016040519081016040528092919081815260200182805460018160011615610100020316600290048015611ce95780601f10611cbe57610100808354040283529160200191611ce9565b820191906000526020600020905b815481529060010190602001808311611ccc57829003601f168201915b505050505090806003018054600181600116156101000203166002900480601f016020809104026020016040519081016040528092919081815260200182805460018160011615610100020316600290048015611d875780601f10611d5c57610100808354040283529160200191611d87565b820191906000526020600020905b815481529060010190602001808311611d6a57829003601f168201915b5050505050905084565b6000809054906101000a900473ffffffffffffffffffffffffffffffffffffffff1673ffffffffffffffffffffffffffffffffffffffff163373ffffffffffffffffffffffffffffffffffffffff16141515611e7b576040517f08c379a000000000000000000000000000000000000000000000000000000000815260040180806020018281038252602b8152602001807f4f6e6c7920436f6e7472616374204f776e657220616b612041646d696e20636181526020017f6e2063616c6c207468697300000000000000000000000000000000000000000081525060400191505060405180910390fd5b6003600081548092919060010191905055506080604051908101604052808473ffffffffffffffffffffffffffffffffffffffff16815260200160035481526020018381526020018281525060086000600354815260200190815260200160002060008201518160000160006101000a81548173ffffffffffffffffffffffffffffffffffffffff021916908373ffffffffffffffffffffffffffffffffffffffff160217905550602082015181600101556040820151816002019080519060200190611f49929190613782565b506060820151816003019080519060200190611f66929190613782565b50905050505050565b60055481565b6000809054906101000a900473ffffffffffffffffffffffffffffffffffffffff1673ffffffffffffffffffffffffffffffffffffffff163373ffffffffffffffffffffffffffffffffffffffff1614151561205f576040517f08c379a000000000000000000000000000000000000000000000000000000000815260040180806020018281038252602b8152602001807f4f6e6c7920436f6e7472616374204f776e657220616b612041646d696e20636181526020017f6e2063616c6c207468697300000000000000000000000000000000000000000081525060400191505060405180910390fd5b6005600081548092919060010191905055506080604051908101604052808473ffffffffffffffffffffffffffffffffffffffff168152602001600554815260200183815260200182815250600a6000600554815260200190815260200160002060008201518160000160006101000a81548173ffffffffffffffffffffffffffffffffffffffff021916908373ffffffffffffffffffffffffffffffffffffffff16021790555060208201518160010155604082015181600201908051906020019061212d929190613782565b50606082015181600301908051906020019061214a929190613782565b50905050505050565b60008111801561216557506001548111155b15156121d9576040517f08c379a00000000000000000000000000000000000000000000000000000000081526004018080602001828103825260128152602001807f4e6f206d65646963696e657320666f756e64000000000000000000000000000081525060200191505060405180910390fd5b60006121e4336135f8565b905060008111151561225e576040517f08c379a00000000000000000000000000000000000000000000000000000000081526004018080602001828103825260208152602001807f4f6e6c7920537570706c696572206163636f756e742063616e20737570706c7981525060200191505060405180910390fd5b6000600581111561226b57fe5b6006600084815260200190815260200160002060070160009054906101000a900460ff16600581111561229a57fe5b14151561235b576040517f08c379a00000000000000000000000000000000000000000000000000000000081526004018080602001828103825260418152602001807f4f72646572642073686f756c6420626520706c6163656420616e64204d45442081526020017f61742074686520496e697420737461676520746f2067657420537570706c696581526020017f640000000000000000000000000000000000000000000000000000000000000081525060600191505060405180910390fd5b80600660008481526020019081526020016000206003018190555060016006600084815260200190815260200160002060070160006101000a81548160ff021916908360058111156123a957fe5b02179055505050565b60006002541180156123c657506000600354115b80156123d457506000600454115b80156123e257506000600554115b15156123ed57600080fd5b60006123f8336136bd565b9050600081111515612498576040517f08c379a00000000000000000000000000000000000000000000000000000000081526004018080602001828103825260338152602001807f4f6e6c79204d616e756661637475726572206163636f756e742063616e206d6181526020017f6e7566616374757265206d65646963696e65730000000000000000000000000081525060400191505060405180910390fd5b600160058111156124a557fe5b6006600086815260200190815260200160002060070160009054906101000a900460ff1660058111156124d457fe5b14151561256f576040517f08c379a000000000000000000000000000000000000000000000000000000000815260040180806020018281038252602d8152602001807f69642053686f756c6420626520617420746865207261772d6d6174657269616c81526020017f2d737570706c792073746167650000000000000000000000000000000000000081525060400191505060405180910390fd5b61010060405190810160405280858152602001848152602001838152602001600660008781526020019081526020016000206003015481526020018281526020016000815260200160008152602001600260058111156125cb57fe5b81525060066000868152602001908152602001600020600082015181600001556020820151816001019080519060200190612607929190613782565b506040820151816002019080519060200190612624929190613782565b50606082015181600301556080820151816004015560a0820151816005015560c0820151816006015560e08201518160070160006101000a81548160ff0219169083600581111561267157fe5b02179055509050507f5feaf3b4559bb8b72dc0e85433457d08219fd15b66597c60efee7b53d6e5ef8f8484604051808381526020018060200180602001838103835284818151815260200191508051906020019080838360005b838110156126e65780820151818401526020810190506126cb565b50505050905090810190601f1680156127135780820380516001836020036101000a031916815260200191505b50838103825260218152602001807f4d65646963696e652052656769737465726564205375636365737366756c6c7981526020017f210000000000000000000000000000000000000000000000000000000000000081525060400194505050505060405180910390a150505050565b60008111801561279457506001548111155b1515612808576040517f08c379a00000000000000000000000000000000000000000000000000000000081526004018080602001828103825260128152602001807f4e6f206d65646963696e657320666f756e64000000000000000000000000000081525060200191505060405180910390fd5b60006128133361346e565b905060008111151561288d576040517f08c379a000000000000000000000000000000000000000000000000000000000815260040180806020018281038252601e8152602001807f4f6e6c792052657461696c6572206163636f756e742063616e2073656c6c000081525060200191505060405180910390fd5b6006600083815260200190815260200160002060060154811415156128b157600080fd5b600460058111156128be57fe5b6006600084815260200190815260200160002060070160009054906101000a900460ff1660058111156128ed57fe5b141515612988576040517f08c379a00000000000000000000000000000000000000000000000000000000081526004018080602001828103825260328152602001807f4d65646963696e652073686f756c64206265206174207468652052657461696c81526020017f20737461676520746f2067657420736f6c64000000000000000000000000000081525060400191505060405180910390fd5b60056006600084815260200190815260200160002060070160006101000a81548160ff021916908360058111156129bb57fe5b02179055505050565b60015481565b6000809054906101000a900473ffffffffffffffffffffffffffffffffffffffff1681565b60086020528060005260406000206000915090508060000160009054906101000a900473ffffffffffffffffffffffffffffffffffffffff1690806001015490806002018054600181600116156101000203166002900480601f016020809104026020016040519081016040528092919081815260200182805460018160011615610100020316600290048015612ac75780601f10612a9c57610100808354040283529160200191612ac7565b820191906000526020600020905b815481529060010190602001808311612aaa57829003601f168201915b505050505090806003018054600181600116156101000203166002900480601f016020809104026020016040519081016040528092919081815260200182805460018160011615610100020316600290048015612b655780601f10612b3a57610100808354040283529160200191612b65565b820191906000526020600020905b815481529060010190602001808311612b4857829003601f168201915b5050505050905084565b60025481565b60606000600154111515612b8857600080fd5b60006005811115612b9557fe5b6006600084815260200190815260200160002060070160009054906101000a900460ff166005811115612bc457fe5b1415612c07576040805190810160405280601081526020017f4d65646963696e65204f726465726564000000000000000000000000000000008152509050612e82565b60016005811115612c1457fe5b6006600084815260200190815260200160002060070160009054906101000a900460ff166005811115612c4357fe5b1415612c86576040805190810160405280601981526020017f526177204d6174657269616c20537570706c79205374616765000000000000008152509050612e82565b60026005811115612c9357fe5b6006600084815260200190815260200160002060070160009054906101000a900460ff166005811115612cc257fe5b1415612d05576040805190810160405280601381526020017f4d616e75666163747572696e67205374616765000000000000000000000000008152509050612e82565b60036005811115612d1257fe5b6006600084815260200190815260200160002060070160009054906101000a900460ff166005811115612d4157fe5b1415612d84576040805190810160405280601281526020017f446973747269627574696f6e20537461676500000000000000000000000000008152509050612e82565b60046005811115612d9157fe5b6006600084815260200190815260200160002060070160009054906101000a900460ff166005811115612dc057fe5b1415612e03576040805190810160405280600c81526020017f52657461696c20537461676500000000000000000000000000000000000000008152509050612e82565b600580811115612e0f57fe5b6006600084815260200190815260200160002060070160009054906101000a900460ff166005811115612e3e57fe5b1415612e81576040805190810160405280600d81526020017f4d65646963696e6520536f6c64000000000000000000000000000000000000008152509050612e82565b5b919050565b6006602052806000526040600020600091509050806000015490806001018054600181600116156101000203166002900480601f016020809104026020016040519081016040528092919081815260200182805460018160011615610100020316600290048015612f395780601f10612f0e57610100808354040283529160200191612f39565b820191906000526020600020905b815481529060010190602001808311612f1c57829003601f168201915b505050505090806002018054600181600116156101000203166002900480601f016020809104026020016040519081016040528092919081815260200182805460018160011615610100020316600290048015612fd75780601f10612fac57610100808354040283529160200191612fd7565b820191906000526020600020905b815481529060010190602001808311612fba57829003601f168201915b5050505050908060030154908060040154908060050154908060060154908060070160009054906101000a900460ff16905088565b60076020528060005260406000206000915090508060000160009054906101000a900473ffffffffffffffffffffffffffffffffffffffff1690806001015490806002018054600181600116156101000203166002900480601f0160208091040260200160405190810160405280929190818152602001828054600181600116156101000203166002900480156130e45780601f106130b9576101008083540402835291602001916130e4565b820191906000526020600020905b8154815290600101906020018083116130c757829003601f168201915b505050505090806003018054600181600116156101000203166002900480601f0160208091040260200160405190810160405280929190818152602001828054600181600116156101000203166002900480156131825780601f1061315757610100808354040283529160200191613182565b820191906000526020600020905b81548152906001019060200180831161316557829003601f168201915b5050505050905084565b6000809054906101000a900473ffffffffffffffffffffffffffffffffffffffff1673ffffffffffffffffffffffffffffffffffffffff163373ffffffffffffffffffffffffffffffffffffffff16141515613276576040517f08c379a000000000000000000000000000000000000000000000000000000000815260040180806020018281038252602b8152602001807f4f6e6c7920436f6e7472616374204f776e657220616b612041646d696e20636181526020017f6e2063616c6c207468697300000000000000000000000000000000000000000081525060400191505060405180910390fd5b600060025411801561328a57506000600354115b801561329857506000600454115b80156132a657506000600554115b1515613340576040517f08c379a00000000000000000000000000000000000000000000000000000000081526004018080602001828103825260278152602001807f41646420616c6c20746865206d656d62657273206f662074686520537570706c81526020017f7920436861696e0000000000000000000000000000000000000000000000000081525060400191505060405180910390fd5b600160008154809291906001019190505550610100604051908101604052806001548152602001602060405190810160405280600081525081526020016020604051908101604052806000815250815260200160008152602001600081526020016000815260200160008152602001600060058111156133bc57fe5b8152506006600060015481526020019081526020016000206000820151816000015560208201518160010190805190602001906133fa929190613782565b506040820151816002019080519060200190613417929190613782565b50606082015181600301556080820151816004015560a0820151816005015560c0820151816006015560e08201518160070160006101000a81548160ff0219169083600581111561346457fe5b0217905550905050565b60008060055411151561348057600080fd5b6000600190505b60055481111515613528578273ffffffffffffffffffffffffffffffffffffffff16600a600083815260200190815260200160002060000160009054906101000a900473ffffffffffffffffffffffffffffffffffffffff1673ffffffffffffffffffffffffffffffffffffffff16141561351b57600a60008281526020019081526020016000206001015491505061352e565b8080600101915050613487565b50600090505b919050565b60008060045411151561354557600080fd5b6000600190505b600454811115156135ed578273ffffffffffffffffffffffffffffffffffffffff166009600083815260200190815260200160002060000160009054906101000a900473ffffffffffffffffffffffffffffffffffffffff1673ffffffffffffffffffffffffffffffffffffffff1614156135e05760096000828152602001908152602001600020600101549150506135f3565b808060010191505061354c565b50600090505b919050565b60008060025411151561360a57600080fd5b6000600190505b600254811115156136b2578273ffffffffffffffffffffffffffffffffffffffff166007600083815260200190815260200160002060000160009054906101000a900473ffffffffffffffffffffffffffffffffffffffff1673ffffffffffffffffffffffffffffffffffffffff1614156136a55760076000828152602001908152602001600020600101549150506136b8565b8080600101915050613611565b50600090505b919050565b6000806003541115156136cf57600080fd5b6000600190505b60035481111515613777578273ffffffffffffffffffffffffffffffffffffffff166008600083815260200190815260200160002060000160009054906101000a900473ffffffffffffffffffffffffffffffffffffffff1673ffffffffffffffffffffffffffffffffffffffff16141561376a57600860008281526020019081526020016000206001015491505061377d565b80806001019150506136d6565b50600090505b919050565b828054600181600116156101000203166002900490600052602060002090601f016020900481019282601f106137c357805160ff19168380011785556137f1565b828001600101855582156137f1579182015b828111156137f05782518255916020019190600101906137d5565b5b5090506137fe9190613802565b5090565b61382491905b80821115613820576000816000905550600101613808565b5090565b9056fea165627a7a723058207c666a4b89c541cb30ab44f209cbf4e8e4930c04b05e35e7683ce04fb140920f0029",
  "source": "// SPDX-License-Identifier: MIT\r\npragma solidity >=0.4.22 <0.9.0;\r\n\r\ncontract SupplyChain {\r\n    //Smart Contract owner will be the person who deploys the contract only he can authorize various roles like retailer, Manufacturer,etc\r\n    address public Owner;\r\n\r\n    //note this constructor will be called when smart contract will be deployed on blockchain\r\n    constructor() public {\r\n        Owner = msg.sender;\r\n    }\r\n\r\n    //Roles (flow of pharma supply chain)\r\n    // RawMaterialSupplier; //This is where Manufacturer will get raw materials to make medicines\r\n    // Manufacturer;  //Various WHO guidelines should be followed by this person\r\n    // Distributor; //This guy distributes the medicines to retailers\r\n    // Retailer; //Normal customer buys from the retailer\r\n\r\n    //modifier to make sure only the owner is using the function\r\n    modifier onlyByOwner() {\r\n        require(msg.sender == Owner,  \"Only Contract Owner aka Admin can call this\");\r\n        _;\r\n    }\r\n\r\n    event medReg(uint _medId, string name, string description);\r\n\r\n    //stages of a medicine in pharma supply chain\r\n    enum STAGE {\r\n        Init,\r\n        RawMaterialSupply,\r\n        Manufacture,\r\n        Distribution,\r\n        Retail,\r\n        sold\r\n    }\r\n    //using this we are going to track every single medicine the owner orders\r\n\r\n    //Medicine count\r\n    uint256 public medicineCtr = 0;\r\n    //Raw material supplier count\r\n    uint256 public rmsCtr = 0;\r\n    //Manufacturer count\r\n    uint256 public manCtr = 0;\r\n    //distributor count\r\n    uint256 public disCtr = 0;\r\n    //retailer count\r\n    uint256 public retCtr = 0;\r\n\r\n    //To store information about the medicine\r\n    struct medicine {\r\n        uint256 id; //unique medicine id\r\n        string name; //name of the medicine\r\n        string description; //about medicine\r\n        uint256 RMSid; //id of the Raw Material supplier for this particular medicine\r\n        uint256 MANid; //id of the Manufacturer for this particular medicine\r\n        uint256 DISid; //id of the distributor for this particular medicine\r\n        uint256 RETid; //id of the retailer for this particular medicine\r\n        STAGE stage; //current medicine stage\r\n    }\r\n\r\n    //To store all the medicines on the blockchain\r\n    mapping(uint256 => medicine) public MedicineStock;\r\n\r\n    //To show status to client applications\r\n    function showStage(uint256 _medicineID)\r\n        public\r\n        view\r\n        returns (string memory _stage)\r\n    {\r\n        require(medicineCtr > 0);\r\n        if (MedicineStock[_medicineID].stage == STAGE.Init)\r\n            return \"Medicine Ordered\";\r\n        else if (MedicineStock[_medicineID].stage == STAGE.RawMaterialSupply)\r\n            return \"Raw Material Supply Stage\";\r\n        else if (MedicineStock[_medicineID].stage == STAGE.Manufacture)\r\n            return \"Manufacturing Stage\";\r\n        else if (MedicineStock[_medicineID].stage == STAGE.Distribution)\r\n            return \"Distribution Stage\";\r\n        else if (MedicineStock[_medicineID].stage == STAGE.Retail)\r\n            return \"Retail Stage\";\r\n        else if (MedicineStock[_medicineID].stage == STAGE.sold)\r\n            return \"Medicine Sold\";\r\n    }\r\n\r\n    //To store information about raw material supplier\r\n    struct rawMaterialSupplier {\r\n        address addr;\r\n        uint256 id_no; //supplier id_no\r\n        string name; //Name of the raw material supplier\r\n        string place; //Place the raw material supplier is based in\r\n    }\r\n\r\n    //To store all the raw material suppliers on the blockchain\r\n    mapping(uint256 => rawMaterialSupplier) public RMS;\r\n\r\n    //To store information about manufacturer\r\n    struct manufacturer {\r\n        address addr;\r\n        uint256 id_no; //manufacturer id_no\r\n        string name; //Name of the manufacturer\r\n        string place; //Place the manufacturer is based in\r\n    }\r\n\r\n    //To store all the manufacturers on the blockchain\r\n    mapping(uint256 => manufacturer) public MAN;\r\n\r\n    //To store information about distributor\r\n    struct distributor {\r\n        address addr;\r\n        uint256 id_no; //distributor id_no\r\n        string name; //Name of the distributor\r\n        string place; //Place the distributor is based in\r\n    }\r\n\r\n    //To store all the distributors on the blockchain\r\n    mapping(uint256 => distributor) public DIS;\r\n\r\n    //To store information about retailer\r\n    struct retailer {\r\n        address addr;\r\n        uint256 id_no; //retailer id_no\r\n        string name; //Name of the retailer\r\n        string place; //Place the retailer is based in\r\n    }\r\n\r\n    //To store all the retailers on the blockchain\r\n    mapping(uint256 => retailer) public RET;\r\n\r\n    //To add raw material suppliers. Only contract owner can add a new raw material supplier\r\n    function addRMS(\r\n        address _address,\r\n        string memory _name,\r\n        string memory _place\r\n    ) public onlyByOwner {\r\n        rmsCtr++;\r\n        RMS[rmsCtr] = rawMaterialSupplier(_address, rmsCtr, _name, _place);\r\n    }\r\n\r\n    //To add manufacturer. Only contract owner can add a new manufacturer\r\n    function addManufacturer(\r\n        address _address,\r\n        string memory _name,\r\n        string memory _place\r\n    ) public onlyByOwner {\r\n        manCtr++;\r\n        MAN[manCtr] = manufacturer(_address, manCtr, _name, _place);\r\n    }\r\n\r\n    //To add distributor. Only contract owner can add a new distributor\r\n    function addDistributor(\r\n        address _address,\r\n        string memory _name,\r\n        string memory _place\r\n    ) public onlyByOwner {\r\n        disCtr++;\r\n        DIS[disCtr] = distributor(_address, disCtr, _name, _place);\r\n    }\r\n\r\n    //To add retailer. Only contract owner can add a new retailer\r\n    function addRetailer(\r\n        address _address,\r\n        string memory _name,\r\n        string memory _place\r\n    ) public onlyByOwner {\r\n        retCtr++;\r\n        RET[retCtr] = retailer(_address, retCtr, _name, _place);\r\n    }\r\n\r\n    //To supply raw materials from RMS supplier to the manufacturer\r\n    function RMSsupply(uint256 _medicineID) public {\r\n        require(_medicineID > 0 && _medicineID <= medicineCtr,\"No medicines found\");\r\n        uint256 _id = findRMS(msg.sender);\r\n        require(_id > 0, \"Only Supplier account can supply\");\r\n        require(MedicineStock[_medicineID].stage == STAGE.Init,  \"Orderd should be placed and MED at the Init stage to get Supplied\" );\r\n        MedicineStock[_medicineID].RMSid = _id;\r\n        MedicineStock[_medicineID].stage = STAGE.RawMaterialSupply;\r\n    }\r\n\r\n    //To check if RMS is available in the blockchain\r\n    function findRMS(address _address) private view returns (uint256) {\r\n        require(rmsCtr > 0);\r\n        for (uint256 i = 1; i <= rmsCtr; i++) {\r\n            if (RMS[i].addr == _address) return RMS[i].id_no;\r\n        }\r\n        return 0;\r\n    }\r\n\r\n\r\n    //To supply medicines from Manufacturer to distributor\r\n    function Distribute(uint256 _medicineID) public {\r\n        require(_medicineID > 0 && _medicineID <= medicineCtr,\"No medicines found\");\r\n        uint256 _id = findDIS(msg.sender);\r\n        require(_id > 0,\"Only distributor account can distribute\");\r\n        require(MedicineStock[_medicineID].stage == STAGE.Manufacture, \"Medicine should be at the Manufacture stage to get distributed\");\r\n        MedicineStock[_medicineID].DISid = _id;\r\n        MedicineStock[_medicineID].stage = STAGE.Distribution;\r\n    }\r\n\r\n    //To check if distributor is available in the blockchain\r\n    function findDIS(address _address) private view returns (uint256) {\r\n        require(disCtr > 0);\r\n        for (uint256 i = 1; i <= disCtr; i++) {\r\n            if (DIS[i].addr == _address) return DIS[i].id_no;\r\n        }\r\n        return 0;\r\n    }\r\n\r\n    //To supply medicines from distributor to retailer\r\n    function Retail(uint256 _medicineID) public {\r\n        require(_medicineID > 0 && _medicineID <= medicineCtr, \"No medicines found\");\r\n        uint256 _id = findRET(msg.sender);\r\n        require(_id > 0, \"Only Retailer account can retail\");\r\n        require(MedicineStock[_medicineID].stage == STAGE.Distribution, \"Medicine should be at the distribiution stage to get retailed\");\r\n        MedicineStock[_medicineID].RETid = _id;\r\n        MedicineStock[_medicineID].stage = STAGE.Retail;\r\n    }\r\n\r\n    //To check if retailer is available in the blockchain\r\n    function findRET(address _address) private view returns (uint256) {\r\n        require(retCtr > 0);\r\n        for (uint256 i = 1; i <= retCtr; i++) {\r\n            if (RET[i].addr == _address) return RET[i].id_no;\r\n        }\r\n        return 0;\r\n    }\r\n\r\n    //To sell medicines from retailer to consumer\r\n    function sold(uint256 _medicineID) public {\r\n        require(_medicineID > 0 && _medicineID <= medicineCtr, \"No medicines found\");\r\n        uint256 _id = findRET(msg.sender);\r\n        require(_id > 0, \"Only Retailer account can sell\");\r\n        require(_id == MedicineStock[_medicineID].RETid); //Only correct retailer can mark medicine as sold\r\n        require(MedicineStock[_medicineID].stage == STAGE.Retail, \"Medicine should be at the Retail stage to get sold\");\r\n        MedicineStock[_medicineID].stage = STAGE.sold;\r\n    }\r\n\r\n\r\n    // Find MAN\r\n\r\n      function findMAN(address _address) private view returns (uint256) {\r\n        require(manCtr > 0);\r\n        for (uint256 i = 1; i <= manCtr; i++) {\r\n            if (MAN[i].addr == _address) return MAN[i].id_no;\r\n        }\r\n        return 0;\r\n    }\r\n\r\n    // To add new medicines to the stock\r\n    function addMedicine(uint _medId, string memory _name, string memory _description )\r\n        public\r\n    {\r\n        require((rmsCtr > 0) && (manCtr > 0) && (disCtr > 0) && (retCtr > 0));\r\n        uint256 _id = findMAN(msg.sender);\r\n        require(_id > 0, \"Only Manufacturer account can manufacture medicines\");\r\n        require(MedicineStock[_medId].stage == STAGE.RawMaterialSupply, \"id Should be at the raw-material-supply stage\");\r\n        MedicineStock[_medId] = medicine(\r\n            _medId,\r\n            _name,\r\n            _description,\r\n            MedicineStock[_medId].RMSid,\r\n            _id,\r\n            0,\r\n            0,\r\n            STAGE.Manufacture\r\n        );\r\n        emit medReg(_medId, _name, \"Medicine Registered Successfully!\");\r\n    }\r\n     function placeOrder()\r\n        public\r\n        onlyByOwner\r\n    {\r\n        require((rmsCtr > 0) && (manCtr > 0) && (disCtr > 0) && (retCtr > 0), \"Add all the members of the Supply Chain\");\r\n       \r\n        medicineCtr++;\r\n        MedicineStock[medicineCtr] = medicine(\r\n            medicineCtr,\r\n            \"\",\r\n            \"\",\r\n            0,\r\n            0,\r\n            0,\r\n            0,\r\n            STAGE.Init\r\n        );\r\n    }\r\n}\r\n",
  "sourcePath": "C:\\Users\\Abbie\\Desktop\\trufg\\contracts\\SupplyChain.sol",
  "compiler": {
    "name": "solc",
    "version": "0.5.1+commit.c8a2cb62.Emscripten.clang"
  },
  "schemaVersion": "3.4.14",
  "updatedAt": "2023-07-15T17:31:20.608Z",
  "devdoc": {
    "methods": {}
  },
  "userdoc": {
    "methods": {}
  }
}